{
  "_format": "hh-sol-artifact-1",
  "contractName": "VoteSystem",
  "sourceName": "contracts/VoteSystem.sol",
  "abi": [
    {
      "inputs": [
        {
          "internalType": "string[]",
          "name": "nameList",
          "type": "string[]"
        }
      ],
      "stateMutability": "nonpayable",
      "type": "constructor"
    },
    {
      "anonymous": false,
      "inputs": [
        {
          "indexed": false,
          "internalType": "string",
          "name": "",
          "type": "string"
        }
      ],
      "name": "voteSuccess",
      "type": "event"
    },
    {
      "inputs": [
        {
          "internalType": "uint256",
          "name": "",
          "type": "uint256"
        }
      ],
      "name": "board",
      "outputs": [
        {
          "internalType": "string",
          "name": "crypto",
          "type": "string"
        },
        {
          "internalType": "uint256",
          "name": "totalAmount",
          "type": "uint256"
        }
      ],
      "stateMutability": "view",
      "type": "function"
    },
    {
      "inputs": [
        {
          "internalType": "address",
          "name": "to",
          "type": "address"
        }
      ],
      "name": "delegate",
      "outputs": [],
      "stateMutability": "nonpayable",
      "type": "function"
    },
    {
      "inputs": [],
      "name": "getBoardInfo",
      "outputs": [
        {
          "components": [
            {
              "internalType": "string",
              "name": "crypto",
              "type": "string"
            },
            {
              "internalType": "uint256",
              "name": "totalAmount",
              "type": "uint256"
            }
          ],
          "internalType": "struct VoteSystem.Board[]",
          "name": "",
          "type": "tuple[]"
        }
      ],
      "stateMutability": "view",
      "type": "function"
    },
    {
      "inputs": [],
      "name": "getVotedVoters",
      "outputs": [
        {
          "internalType": "address[]",
          "name": "",
          "type": "address[]"
        }
      ],
      "stateMutability": "view",
      "type": "function"
    },
    {
      "inputs": [],
      "name": "getWinner",
      "outputs": [
        {
          "internalType": "string[]",
          "name": "winnerList",
          "type": "string[]"
        }
      ],
      "stateMutability": "view",
      "type": "function"
    },
    {
      "inputs": [],
      "name": "host",
      "outputs": [
        {
          "internalType": "address",
          "name": "",
          "type": "address"
        }
      ],
      "stateMutability": "view",
      "type": "function"
    },
    {
      "inputs": [
        {
          "internalType": "address[]",
          "name": "addressList",
          "type": "address[]"
        }
      ],
      "name": "mandate",
      "outputs": [],
      "stateMutability": "nonpayable",
      "type": "function"
    },
    {
      "inputs": [
        {
          "internalType": "uint256",
          "name": "cryptoId",
          "type": "uint256"
        }
      ],
      "name": "vote",
      "outputs": [],
      "stateMutability": "nonpayable",
      "type": "function"
    },
    {
      "inputs": [
        {
          "internalType": "uint256",
          "name": "",
          "type": "uint256"
        }
      ],
      "name": "votedVoters",
      "outputs": [
        {
          "internalType": "address",
          "name": "",
          "type": "address"
        }
      ],
      "stateMutability": "view",
      "type": "function"
    },
    {
      "inputs": [
        {
          "internalType": "address",
          "name": "",
          "type": "address"
        }
      ],
      "name": "voters",
      "outputs": [
        {
          "internalType": "uint256",
          "name": "weight",
          "type": "uint256"
        },
        {
          "internalType": "bool",
          "name": "isVoted",
          "type": "bool"
        },
        {
          "internalType": "address",
          "name": "delegator",
          "type": "address"
        },
        {
          "internalType": "uint256",
          "name": "cryptoId",
          "type": "uint256"
        }
      ],
      "stateMutability": "view",
      "type": "function"
    }
  ],
  "bytecode": "0x60806040523480156200001157600080fd5b506040516200228c3803806200228c833981810160405281019062000037919062000419565b336000806101000a81548173ffffffffffffffffffffffffffffffffffffffff021916908373ffffffffffffffffffffffffffffffffffffffff16021790555060018060008060009054906101000a900473ffffffffffffffffffffffffffffffffffffffff1673ffffffffffffffffffffffffffffffffffffffff1673ffffffffffffffffffffffffffffffffffffffff1681526020019081526020016000206000018190555060005b81518110156200018257600060405180604001604052808484815181106200010f576200010e6200046a565b5b602002602001015181526020016000815250905060028190806001815401808255809150506001900390600052602060002090600202016000909190919091506000820151816000019081620001669190620006e4565b50602082015181600101555050508080600101915050620000e2565b5050620007cb565b6000604051905090565b600080fd5b600080fd5b600080fd5b6000601f19601f8301169050919050565b7f4e487b7100000000000000000000000000000000000000000000000000000000600052604160045260246000fd5b620001ee82620001a3565b810181811067ffffffffffffffff8211171562000210576200020f620001b4565b5b80604052505050565b6000620002256200018a565b9050620002338282620001e3565b919050565b600067ffffffffffffffff821115620002565762000255620001b4565b5b602082029050602081019050919050565b600080fd5b600080fd5b600067ffffffffffffffff8211156200028f576200028e620001b4565b5b6200029a82620001a3565b9050602081019050919050565b60005b83811015620002c7578082015181840152602081019050620002aa565b60008484015250505050565b6000620002ea620002e48462000271565b62000219565b9050828152602081018484840111156200030957620003086200026c565b5b62000316848285620002a7565b509392505050565b600082601f8301126200033657620003356200019e565b5b815162000348848260208601620002d3565b91505092915050565b600062000368620003628462000238565b62000219565b905080838252602082019050602084028301858111156200038e576200038d62000267565b5b835b81811015620003dc57805167ffffffffffffffff811115620003b757620003b66200019e565b5b808601620003c689826200031e565b8552602085019450505060208101905062000390565b5050509392505050565b600082601f830112620003fe57620003fd6200019e565b5b81516200041084826020860162000351565b91505092915050565b60006020828403121562000432576200043162000194565b5b600082015167ffffffffffffffff81111562000453576200045262000199565b5b6200046184828501620003e6565b91505092915050565b7f4e487b7100000000000000000000000000000000000000000000000000000000600052603260045260246000fd5b600081519050919050565b7f4e487b7100000000000000000000000000000000000000000000000000000000600052602260045260246000fd5b60006002820490506001821680620004ec57607f821691505b602082108103620005025762000501620004a4565b5b50919050565b60008190508160005260206000209050919050565b60006020601f8301049050919050565b600082821b905092915050565b6000600883026200056c7fffffffffffffffffffffffffffffffffffffffffffffffffffffffffffffffff826200052d565b6200057886836200052d565b95508019841693508086168417925050509392505050565b6000819050919050565b6000819050919050565b6000620005c5620005bf620005b98462000590565b6200059a565b62000590565b9050919050565b6000819050919050565b620005e183620005a4565b620005f9620005f082620005cc565b8484546200053a565b825550505050565b600090565b6200061062000601565b6200061d818484620005d6565b505050565b5b8181101562000645576200063960008262000606565b60018101905062000623565b5050565b601f82111562000694576200065e8162000508565b62000669846200051d565b8101602085101562000679578190505b6200069162000688856200051d565b83018262000622565b50505b505050565b600082821c905092915050565b6000620006b96000198460080262000699565b1980831691505092915050565b6000620006d48383620006a6565b9150826002028217905092915050565b620006ef8262000499565b67ffffffffffffffff8111156200070b576200070a620001b4565b5b620007178254620004d3565b6200072482828562000649565b600060209050601f8311600181146200075c576000841562000747578287015190505b620007538582620006c6565b865550620007c3565b601f1984166200076c8662000508565b60005b8281101562000796578489015182556001820191506020850194506020810190506200076f565b86831015620007b65784890151620007b2601f891682620006a6565b8355505b6001600288020188555050505b505050505050565b611ab180620007db6000396000f3fe608060405234801561001057600080fd5b506004361061009e5760003560e01c80638760c761116100665780638760c7611461015a5780638e7ea5b214610176578063a3ec138d14610194578063ed34c6ee146101c7578063f437bc59146101e55761009e565b80630121b93f146100a3578063189d2958146100bf57806328ed6e3f146100dd5780635c19a95c1461010e5780637831ffb31461012a575b600080fd5b6100bd60048036038101906100b89190610fc3565b610203565b005b6100c76103e1565b6040516100d491906110e0565b60405180910390f35b6100f760048036038101906100f29190610fc3565b61046f565b6040516101059291906111a1565b60405180910390f35b610128600480360381019061012391906111fd565b61052b565b005b610144600480360381019061013f9190610fc3565b610903565b6040516101519190611239565b60405180910390f35b610174600480360381019061016f91906112b9565b610942565b005b61017e610ada565b60405161018b9190611412565b60405180910390f35b6101ae60048036038101906101a991906111fd565b610e07565b6040516101be949392919061144f565b60405180910390f35b6101cf610e64565b6040516101dc91906115a2565b60405180910390f35b6101ed610f5f565b6040516101fa9190611239565b60405180910390f35b6000600160003373ffffffffffffffffffffffffffffffffffffffff1673ffffffffffffffffffffffffffffffffffffffff16815260200190815260200160002090508060010160009054906101000a900460ff1615610298576040517f08c379a000000000000000000000000000000000000000000000000000000000815260040161028f90611610565b60405180910390fd5b60028054905082106102df576040517f08c379a00000000000000000000000000000000000000000000000000000000081526004016102d69061167c565b60405180910390fd5b60018160010160006101000a81548160ff0219169083151502179055506003339080600181540180825580915050600190039060005260206000200160009091909190916101000a81548173ffffffffffffffffffffffffffffffffffffffff021916908373ffffffffffffffffffffffffffffffffffffffff1602179055508181600201819055508060000154600283815481106103815761038061169c565b5b906000526020600020906002020160010160008282546103a191906116fa565b925050819055507f71811a05f98c0d6a3ee4d373e7d62d53422d5baf858d802816efce275df7d3fa6040516103d59061177a565b60405180910390a15050565b6060600380548060200260200160405190810160405280929190818152602001828054801561046557602002820191906000526020600020905b8160009054906101000a900473ffffffffffffffffffffffffffffffffffffffff1673ffffffffffffffffffffffffffffffffffffffff168152602001906001019080831161041b575b5050505050905090565b6002818154811061047f57600080fd5b90600052602060002090600202016000915090508060000180546104a2906117c9565b80601f01602080910402602001604051908101604052809291908181526020018280546104ce906117c9565b801561051b5780601f106104f05761010080835404028352916020019161051b565b820191906000526020600020905b8154815290600101906020018083116104fe57829003601f168201915b5050505050908060010154905082565b6000600160003373ffffffffffffffffffffffffffffffffffffffff1673ffffffffffffffffffffffffffffffffffffffff1681526020019081526020016000209050600160003373ffffffffffffffffffffffffffffffffffffffff1673ffffffffffffffffffffffffffffffffffffffff16815260200190815260200160002060010160009054906101000a900460ff16156105fe576040517f08c379a00000000000000000000000000000000000000000000000000000000081526004016105f59061186c565b60405180910390fd5b8173ffffffffffffffffffffffffffffffffffffffff163373ffffffffffffffffffffffffffffffffffffffff160361066c576040517f08c379a0000000000000000000000000000000000000000000000000000000008152600401610663906118d8565b60405180910390fd5b5b600073ffffffffffffffffffffffffffffffffffffffff16600160008473ffffffffffffffffffffffffffffffffffffffff1673ffffffffffffffffffffffffffffffffffffffff16815260200190815260200160002060010160019054906101000a900473ffffffffffffffffffffffffffffffffffffffff1673ffffffffffffffffffffffffffffffffffffffff16146107db57600160008373ffffffffffffffffffffffffffffffffffffffff1673ffffffffffffffffffffffffffffffffffffffff16815260200190815260200160002060010160019054906101000a900473ffffffffffffffffffffffffffffffffffffffff1691503373ffffffffffffffffffffffffffffffffffffffff168273ffffffffffffffffffffffffffffffffffffffff16036107d6576040517f08c379a00000000000000000000000000000000000000000000000000000000081526004016107cd90611944565b60405180910390fd5b61066d565b60018160010160006101000a81548160ff021916908315150217905550818160010160016101000a81548173ffffffffffffffffffffffffffffffffffffffff021916908373ffffffffffffffffffffffffffffffffffffffff1602179055506000600160008473ffffffffffffffffffffffffffffffffffffffff1673ffffffffffffffffffffffffffffffffffffffff16815260200190815260200160002090508060010160009054906101000a900460ff16156108de57816000015460028260020154815481106108b2576108b161169c565b5b906000526020600020906002020160010160008282546108d291906116fa565b925050819055506108fe565b81600001548160000160008282546108f691906116fa565b925050819055505b505050565b6003818154811061091357600080fd5b906000526020600020016000915054906101000a900473ffffffffffffffffffffffffffffffffffffffff1681565b60008054906101000a900473ffffffffffffffffffffffffffffffffffffffff1673ffffffffffffffffffffffffffffffffffffffff163373ffffffffffffffffffffffffffffffffffffffff16146109d0576040517f08c379a00000000000000000000000000000000000000000000000000000000081526004016109c7906119b0565b60405180910390fd5b60005b82829050811015610ad557600160008484848181106109f5576109f461169c565b5b9050602002016020810190610a0a91906111fd565b73ffffffffffffffffffffffffffffffffffffffff1673ffffffffffffffffffffffffffffffffffffffff16815260200190815260200160002060010160009054906101000a900460ff16610ac8576001806000858585818110610a7157610a7061169c565b5b9050602002016020810190610a8691906111fd565b73ffffffffffffffffffffffffffffffffffffffff1673ffffffffffffffffffffffffffffffffffffffff168152602001908152602001600020600001819055505b80806001019150506109d3565b505050565b6060600080600060028054905067ffffffffffffffff811115610b0057610aff6119d0565b5b604051908082528060200260200182016040528015610b3357816020015b6060815260200190600190039081610b1e5790505b50935060005b600280549050811015610e00578360028281548110610b5b57610b5a61169c565b5b90600052602060002090600202016001015403610c5d578280610b7d906119ff565b93505060028181548110610b9457610b9361169c565b5b90600052602060002090600202016000018054610bb0906117c9565b80601f0160208091040260200160405190810160405280929190818152602001828054610bdc906117c9565b8015610c295780601f10610bfe57610100808354040283529160200191610c29565b820191906000526020600020905b815481529060010190602001808311610c0c57829003601f168201915b505050505085600185610c3c9190611a47565b81518110610c4d57610c4c61169c565b5b6020026020010181905250610df3565b8360028281548110610c7257610c7161169c565b5b9060005260206000209060020201600101541115610df25760028181548110610c9e57610c9d61169c565b5b90600052602060002090600202016001015493508091506001925080600280549050610cca9190611a47565b67ffffffffffffffff811115610ce357610ce26119d0565b5b604051908082528060200260200182016040528015610d1657816020015b6060815260200190600190039081610d015790505b50945060028181548110610d2d57610d2c61169c565b5b90600052602060002090600202016000018054610d49906117c9565b80601f0160208091040260200160405190810160405280929190818152602001828054610d75906117c9565b8015610dc25780601f10610d9757610100808354040283529160200191610dc2565b820191906000526020600020905b815481529060010190602001808311610da557829003601f168201915b505050505085600185610dd59190611a47565b81518110610de657610de561169c565b5b60200260200101819052505b5b8080600101915050610b39565b5050505090565b60016020528060005260406000206000915090508060000154908060010160009054906101000a900460ff16908060010160019054906101000a900473ffffffffffffffffffffffffffffffffffffffff16908060020154905084565b60606002805480602002602001604051908101604052809291908181526020016000905b82821015610f565783829060005260206000209060020201604051806040016040529081600082018054610ebb906117c9565b80601f0160208091040260200160405190810160405280929190818152602001828054610ee7906117c9565b8015610f345780601f10610f0957610100808354040283529160200191610f34565b820191906000526020600020905b815481529060010190602001808311610f1757829003601f168201915b5050505050815260200160018201548152505081526020019060010190610e88565b50505050905090565b60008054906101000a900473ffffffffffffffffffffffffffffffffffffffff1681565b600080fd5b600080fd5b6000819050919050565b610fa081610f8d565b8114610fab57600080fd5b50565b600081359050610fbd81610f97565b92915050565b600060208284031215610fd957610fd8610f83565b5b6000610fe784828501610fae565b91505092915050565b600081519050919050565b600082825260208201905092915050565b6000819050602082019050919050565b600073ffffffffffffffffffffffffffffffffffffffff82169050919050565b60006110478261101c565b9050919050565b6110578161103c565b82525050565b6000611069838361104e565b60208301905092915050565b6000602082019050919050565b600061108d82610ff0565b6110978185610ffb565b93506110a28361100c565b8060005b838110156110d35781516110ba888261105d565b97506110c583611075565b9250506001810190506110a6565b5085935050505092915050565b600060208201905081810360008301526110fa8184611082565b905092915050565b600081519050919050565b600082825260208201905092915050565b60005b8381101561113c578082015181840152602081019050611121565b60008484015250505050565b6000601f19601f8301169050919050565b600061116482611102565b61116e818561110d565b935061117e81856020860161111e565b61118781611148565b840191505092915050565b61119b81610f8d565b82525050565b600060408201905081810360008301526111bb8185611159565b90506111ca6020830184611192565b9392505050565b6111da8161103c565b81146111e557600080fd5b50565b6000813590506111f7816111d1565b92915050565b60006020828403121561121357611212610f83565b5b6000611221848285016111e8565b91505092915050565b6112338161103c565b82525050565b600060208201905061124e600083018461122a565b92915050565b600080fd5b600080fd5b600080fd5b60008083601f84011261127957611278611254565b5b8235905067ffffffffffffffff81111561129657611295611259565b5b6020830191508360208202830111156112b2576112b161125e565b5b9250929050565b600080602083850312156112d0576112cf610f83565b5b600083013567ffffffffffffffff8111156112ee576112ed610f88565b5b6112fa85828601611263565b92509250509250929050565b600081519050919050565b600082825260208201905092915050565b6000819050602082019050919050565b600082825260208201905092915050565b600061134e82611102565b6113588185611332565b935061136881856020860161111e565b61137181611148565b840191505092915050565b60006113888383611343565b905092915050565b6000602082019050919050565b60006113a882611306565b6113b28185611311565b9350836020820285016113c485611322565b8060005b8581101561140057848403895281516113e1858261137c565b94506113ec83611390565b925060208a019950506001810190506113c8565b50829750879550505050505092915050565b6000602082019050818103600083015261142c818461139d565b905092915050565b60008115159050919050565b61144981611434565b82525050565b60006080820190506114646000830187611192565b6114716020830186611440565b61147e604083018561122a565b61148b6060830184611192565b95945050505050565b600081519050919050565b600082825260208201905092915050565b6000819050602082019050919050565b6114c981610f8d565b82525050565b600060408301600083015184820360008601526114ec8282611343565b915050602083015161150160208601826114c0565b508091505092915050565b600061151883836114cf565b905092915050565b6000602082019050919050565b600061153882611494565b611542818561149f565b935083602082028501611554856114b0565b8060005b858110156115905784840389528151611571858261150c565b945061157c83611520565b925060208a01995050600181019050611558565b50829750879550505050505092915050565b600060208201905081810360008301526115bc818461152d565b905092915050565b7f596f75206861766520766f74656420616c72656164792e000000000000000000600082015250565b60006115fa60178361110d565b9150611605826115c4565b602082019050919050565b60006020820190508181036000830152611629816115ed565b9050919050565b7f496e76616c69642043727970746f2049442e0000000000000000000000000000600082015250565b600061166660128361110d565b915061167182611630565b602082019050919050565b6000602082019050818103600083015261169581611659565b9050919050565b7f4e487b7100000000000000000000000000000000000000000000000000000000600052603260045260246000fd5b7f4e487b7100000000000000000000000000000000000000000000000000000000600052601160045260246000fd5b600061170582610f8d565b915061171083610f8d565b9250828201905080821115611728576117276116cb565b5b92915050565b7f566f7465207375636365737366756c6c792e0000000000000000000000000000600082015250565b600061176460128361110d565b915061176f8261172e565b602082019050919050565b6000602082019050818103600083015261179381611757565b9050919050565b7f4e487b7100000000000000000000000000000000000000000000000000000000600052602260045260246000fd5b600060028204905060018216806117e157607f821691505b6020821081036117f4576117f361179a565b5b50919050565b7f596f75206861766520766f7465642c206e6f206e65656420746f2064656c656760008201527f61746520796f757220766f74657320746f206f74686572732e00000000000000602082015250565b600061185660398361110d565b9150611861826117fa565b604082019050919050565b6000602082019050818103600083015261188581611849565b9050919050565b7f43616e27742064656c656761746520746f2073656c662e000000000000000000600082015250565b60006118c260178361110d565b91506118cd8261188c565b602082019050919050565b600060208201905081810360008301526118f1816118b5565b9050919050565b7f64656c6567617465206c6f6f702e000000000000000000000000000000000000600082015250565b600061192e600e8361110d565b9150611939826118f8565b602082019050919050565b6000602082019050818103600083015261195d81611921565b9050919050565b7f4f6e6c7920686f73742063616e206d616e646174652074686520766f74657300600082015250565b600061199a601f8361110d565b91506119a582611964565b602082019050919050565b600060208201905081810360008301526119c98161198d565b9050919050565b7f4e487b7100000000000000000000000000000000000000000000000000000000600052604160045260246000fd5b6000611a0a82610f8d565b91507fffffffffffffffffffffffffffffffffffffffffffffffffffffffffffffffff8203611a3c57611a3b6116cb565b5b600182019050919050565b6000611a5282610f8d565b9150611a5d83610f8d565b9250828203905081811115611a7557611a746116cb565b5b9291505056fea264697066735822122008b9cb6d4deb3a6c26651607d3de116aec3bbdd285bdc81938d1bf978797425e64736f6c63430008180033",
  "linkReferences": {},
  "deployedLinkReferences": {}
}