{
  "_format": "hh-sol-artifact-1",
  "contractName": "VoteSystem",
  "sourceName": "contracts/VoteSystem.sol",
  "abi": [
    {
      "inputs": [
        {
          "internalType": "string[]",
          "name": "nameList",
          "type": "string[]"
        }
      ],
      "stateMutability": "nonpayable",
      "type": "constructor"
    },
    {
      "anonymous": false,
      "inputs": [
        {
          "indexed": false,
          "internalType": "string",
          "name": "",
          "type": "string"
        }
      ],
      "name": "voteSuccess",
      "type": "event"
    },
    {
      "inputs": [
        {
          "internalType": "uint256",
          "name": "",
          "type": "uint256"
        }
      ],
      "name": "board",
      "outputs": [
        {
          "internalType": "string",
          "name": "crypto",
          "type": "string"
        },
        {
          "internalType": "uint256",
          "name": "totalAmount",
          "type": "uint256"
        }
      ],
      "stateMutability": "view",
      "type": "function"
    },
    {
      "inputs": [
        {
          "internalType": "address",
          "name": "to",
          "type": "address"
        }
      ],
      "name": "delegate",
      "outputs": [],
      "stateMutability": "nonpayable",
      "type": "function"
    },
    {
      "inputs": [],
      "name": "getBoardInfo",
      "outputs": [
        {
          "components": [
            {
              "internalType": "string",
              "name": "crypto",
              "type": "string"
            },
            {
              "internalType": "uint256",
              "name": "totalAmount",
              "type": "uint256"
            }
          ],
          "internalType": "struct VoteSystem.Board[]",
          "name": "",
          "type": "tuple[]"
        }
      ],
      "stateMutability": "view",
      "type": "function"
    },
    {
      "inputs": [],
      "name": "getVotedVoters",
      "outputs": [
        {
          "internalType": "address[]",
          "name": "",
          "type": "address[]"
        }
      ],
      "stateMutability": "view",
      "type": "function"
    },
    {
      "inputs": [],
      "name": "getWinner",
      "outputs": [
        {
          "internalType": "string[]",
          "name": "winnerList",
          "type": "string[]"
        }
      ],
      "stateMutability": "view",
      "type": "function"
    },
    {
      "inputs": [],
      "name": "host",
      "outputs": [
        {
          "internalType": "address",
          "name": "",
          "type": "address"
        }
      ],
      "stateMutability": "view",
      "type": "function"
    },
    {
      "inputs": [
        {
          "internalType": "address[]",
          "name": "addressList",
          "type": "address[]"
        }
      ],
      "name": "mandate",
      "outputs": [],
      "stateMutability": "nonpayable",
      "type": "function"
    },
    {
      "inputs": [
        {
          "internalType": "uint256",
          "name": "cryptoId",
          "type": "uint256"
        }
      ],
      "name": "vote",
      "outputs": [],
      "stateMutability": "nonpayable",
      "type": "function"
    },
    {
      "inputs": [
        {
          "internalType": "uint256",
          "name": "",
          "type": "uint256"
        }
      ],
      "name": "votedVoters",
      "outputs": [
        {
          "internalType": "address",
          "name": "",
          "type": "address"
        }
      ],
      "stateMutability": "view",
      "type": "function"
    },
    {
      "inputs": [
        {
          "internalType": "address",
          "name": "",
          "type": "address"
        }
      ],
      "name": "voters",
      "outputs": [
        {
          "internalType": "uint256",
          "name": "weight",
          "type": "uint256"
        },
        {
          "internalType": "bool",
          "name": "isVoted",
          "type": "bool"
        },
        {
          "internalType": "address",
          "name": "delegator",
          "type": "address"
        },
        {
          "internalType": "uint256",
          "name": "cryptoId",
          "type": "uint256"
        }
      ],
      "stateMutability": "view",
      "type": "function"
    }
  ],
  "bytecode": "0x60806040523480156200001157600080fd5b506040516200219238038062002192833981810160405281019062000037919062000419565b336000806101000a81548173ffffffffffffffffffffffffffffffffffffffff021916908373ffffffffffffffffffffffffffffffffffffffff16021790555060018060008060009054906101000a900473ffffffffffffffffffffffffffffffffffffffff1673ffffffffffffffffffffffffffffffffffffffff1673ffffffffffffffffffffffffffffffffffffffff1681526020019081526020016000206000018190555060005b81518110156200018257600060405180604001604052808484815181106200010f576200010e6200046a565b5b602002602001015181526020016000815250905060028190806001815401808255809150506001900390600052602060002090600202016000909190919091506000820151816000019081620001669190620006e4565b50602082015181600101555050508080600101915050620000e2565b5050620007cb565b6000604051905090565b600080fd5b600080fd5b600080fd5b6000601f19601f8301169050919050565b7f4e487b7100000000000000000000000000000000000000000000000000000000600052604160045260246000fd5b620001ee82620001a3565b810181811067ffffffffffffffff8211171562000210576200020f620001b4565b5b80604052505050565b6000620002256200018a565b9050620002338282620001e3565b919050565b600067ffffffffffffffff821115620002565762000255620001b4565b5b602082029050602081019050919050565b600080fd5b600080fd5b600067ffffffffffffffff8211156200028f576200028e620001b4565b5b6200029a82620001a3565b9050602081019050919050565b60005b83811015620002c7578082015181840152602081019050620002aa565b60008484015250505050565b6000620002ea620002e48462000271565b62000219565b9050828152602081018484840111156200030957620003086200026c565b5b62000316848285620002a7565b509392505050565b600082601f8301126200033657620003356200019e565b5b815162000348848260208601620002d3565b91505092915050565b600062000368620003628462000238565b62000219565b905080838252602082019050602084028301858111156200038e576200038d62000267565b5b835b81811015620003dc57805167ffffffffffffffff811115620003b757620003b66200019e565b5b808601620003c689826200031e565b8552602085019450505060208101905062000390565b5050509392505050565b600082601f830112620003fe57620003fd6200019e565b5b81516200041084826020860162000351565b91505092915050565b60006020828403121562000432576200043162000194565b5b600082015167ffffffffffffffff81111562000453576200045262000199565b5b6200046184828501620003e6565b91505092915050565b7f4e487b7100000000000000000000000000000000000000000000000000000000600052603260045260246000fd5b600081519050919050565b7f4e487b7100000000000000000000000000000000000000000000000000000000600052602260045260246000fd5b60006002820490506001821680620004ec57607f821691505b602082108103620005025762000501620004a4565b5b50919050565b60008190508160005260206000209050919050565b60006020601f8301049050919050565b600082821b905092915050565b6000600883026200056c7fffffffffffffffffffffffffffffffffffffffffffffffffffffffffffffffff826200052d565b6200057886836200052d565b95508019841693508086168417925050509392505050565b6000819050919050565b6000819050919050565b6000620005c5620005bf620005b98462000590565b6200059a565b62000590565b9050919050565b6000819050919050565b620005e183620005a4565b620005f9620005f082620005cc565b8484546200053a565b825550505050565b600090565b6200061062000601565b6200061d818484620005d6565b505050565b5b8181101562000645576200063960008262000606565b60018101905062000623565b5050565b601f82111562000694576200065e8162000508565b62000669846200051d565b8101602085101562000679578190505b6200069162000688856200051d565b83018262000622565b50505b505050565b600082821c905092915050565b6000620006b96000198460080262000699565b1980831691505092915050565b6000620006d48383620006a6565b9150826002028217905092915050565b620006ef8262000499565b67ffffffffffffffff8111156200070b576200070a620001b4565b5b620007178254620004d3565b6200072482828562000649565b600060209050601f8311600181146200075c576000841562000747578287015190505b620007538582620006c6565b865550620007c3565b601f1984166200076c8662000508565b60005b8281101562000796578489015182556001820191506020850194506020810190506200076f565b86831015620007b65784890151620007b2601f891682620006a6565b8355505b6001600288020188555050505b505050505050565b6119b780620007db6000396000f3fe608060405234801561001057600080fd5b506004361061009e5760003560e01c80638760c761116100665780638760c7611461015a5780638e7ea5b214610176578063a3ec138d14610194578063ed34c6ee146101c7578063f437bc59146101e55761009e565b80630121b93f146100a3578063189d2958146100bf57806328ed6e3f146100dd5780635c19a95c1461010e5780637831ffb31461012a575b600080fd5b6100bd60048036038101906100b89190610f35565b610203565b005b6100c76103e1565b6040516100d49190611052565b60405180910390f35b6100f760048036038101906100f29190610f35565b61046f565b604051610105929190611113565b60405180910390f35b6101286004803603810190610123919061116f565b61052b565b005b610144600480360381019061013f9190610f35565b610903565b60405161015191906111ab565b60405180910390f35b610174600480360381019061016f919061122b565b610942565b005b61017e610a4c565b60405161018b9190611384565b60405180910390f35b6101ae60048036038101906101a9919061116f565b610d79565b6040516101be94939291906113c1565b60405180910390f35b6101cf610dd6565b6040516101dc9190611514565b60405180910390f35b6101ed610ed1565b6040516101fa91906111ab565b60405180910390f35b6000600160003373ffffffffffffffffffffffffffffffffffffffff1673ffffffffffffffffffffffffffffffffffffffff16815260200190815260200160002090508060010160009054906101000a900460ff1615610298576040517f08c379a000000000000000000000000000000000000000000000000000000000815260040161028f90611582565b60405180910390fd5b60028054905082106102df576040517f08c379a00000000000000000000000000000000000000000000000000000000081526004016102d6906115ee565b60405180910390fd5b60018160010160006101000a81548160ff0219169083151502179055506003339080600181540180825580915050600190039060005260206000200160009091909190916101000a81548173ffffffffffffffffffffffffffffffffffffffff021916908373ffffffffffffffffffffffffffffffffffffffff1602179055508181600201819055508060000154600283815481106103815761038061160e565b5b906000526020600020906002020160010160008282546103a1919061166c565b925050819055507f71811a05f98c0d6a3ee4d373e7d62d53422d5baf858d802816efce275df7d3fa6040516103d5906116ec565b60405180910390a15050565b6060600380548060200260200160405190810160405280929190818152602001828054801561046557602002820191906000526020600020905b8160009054906101000a900473ffffffffffffffffffffffffffffffffffffffff1673ffffffffffffffffffffffffffffffffffffffff168152602001906001019080831161041b575b5050505050905090565b6002818154811061047f57600080fd5b90600052602060002090600202016000915090508060000180546104a29061173b565b80601f01602080910402602001604051908101604052809291908181526020018280546104ce9061173b565b801561051b5780601f106104f05761010080835404028352916020019161051b565b820191906000526020600020905b8154815290600101906020018083116104fe57829003601f168201915b5050505050908060010154905082565b6000600160003373ffffffffffffffffffffffffffffffffffffffff1673ffffffffffffffffffffffffffffffffffffffff1681526020019081526020016000209050600160003373ffffffffffffffffffffffffffffffffffffffff1673ffffffffffffffffffffffffffffffffffffffff16815260200190815260200160002060010160009054906101000a900460ff16156105fe576040517f08c379a00000000000000000000000000000000000000000000000000000000081526004016105f5906117de565b60405180910390fd5b8173ffffffffffffffffffffffffffffffffffffffff163373ffffffffffffffffffffffffffffffffffffffff160361066c576040517f08c379a00000000000000000000000000000000000000000000000000000000081526004016106639061184a565b60405180910390fd5b5b600073ffffffffffffffffffffffffffffffffffffffff16600160008473ffffffffffffffffffffffffffffffffffffffff1673ffffffffffffffffffffffffffffffffffffffff16815260200190815260200160002060010160019054906101000a900473ffffffffffffffffffffffffffffffffffffffff1673ffffffffffffffffffffffffffffffffffffffff16146107db57600160008373ffffffffffffffffffffffffffffffffffffffff1673ffffffffffffffffffffffffffffffffffffffff16815260200190815260200160002060010160019054906101000a900473ffffffffffffffffffffffffffffffffffffffff1691503373ffffffffffffffffffffffffffffffffffffffff168273ffffffffffffffffffffffffffffffffffffffff16036107d6576040517f08c379a00000000000000000000000000000000000000000000000000000000081526004016107cd906118b6565b60405180910390fd5b61066d565b60018160010160006101000a81548160ff021916908315150217905550818160010160016101000a81548173ffffffffffffffffffffffffffffffffffffffff021916908373ffffffffffffffffffffffffffffffffffffffff1602179055506000600160008473ffffffffffffffffffffffffffffffffffffffff1673ffffffffffffffffffffffffffffffffffffffff16815260200190815260200160002090508060010160009054906101000a900460ff16156108de57816000015460028260020154815481106108b2576108b161160e565b5b906000526020600020906002020160010160008282546108d2919061166c565b925050819055506108fe565b81600001548160000160008282546108f6919061166c565b925050819055505b505050565b6003818154811061091357600080fd5b906000526020600020016000915054906101000a900473ffffffffffffffffffffffffffffffffffffffff1681565b60005b82829050811015610a4757600160008484848181106109675761096661160e565b5b905060200201602081019061097c919061116f565b73ffffffffffffffffffffffffffffffffffffffff1673ffffffffffffffffffffffffffffffffffffffff16815260200190815260200160002060010160009054906101000a900460ff16610a3a5760018060008585858181106109e3576109e261160e565b5b90506020020160208101906109f8919061116f565b73ffffffffffffffffffffffffffffffffffffffff1673ffffffffffffffffffffffffffffffffffffffff168152602001908152602001600020600001819055505b8080600101915050610945565b505050565b6060600080600060028054905067ffffffffffffffff811115610a7257610a716118d6565b5b604051908082528060200260200182016040528015610aa557816020015b6060815260200190600190039081610a905790505b50935060005b600280549050811015610d72578360028281548110610acd57610acc61160e565b5b90600052602060002090600202016001015403610bcf578280610aef90611905565b93505060028181548110610b0657610b0561160e565b5b90600052602060002090600202016000018054610b229061173b565b80601f0160208091040260200160405190810160405280929190818152602001828054610b4e9061173b565b8015610b9b5780601f10610b7057610100808354040283529160200191610b9b565b820191906000526020600020905b815481529060010190602001808311610b7e57829003601f168201915b505050505085600185610bae919061194d565b81518110610bbf57610bbe61160e565b5b6020026020010181905250610d65565b8360028281548110610be457610be361160e565b5b9060005260206000209060020201600101541115610d645760028181548110610c1057610c0f61160e565b5b90600052602060002090600202016001015493508091506001925080600280549050610c3c919061194d565b67ffffffffffffffff811115610c5557610c546118d6565b5b604051908082528060200260200182016040528015610c8857816020015b6060815260200190600190039081610c735790505b50945060028181548110610c9f57610c9e61160e565b5b90600052602060002090600202016000018054610cbb9061173b565b80601f0160208091040260200160405190810160405280929190818152602001828054610ce79061173b565b8015610d345780601f10610d0957610100808354040283529160200191610d34565b820191906000526020600020905b815481529060010190602001808311610d1757829003601f168201915b505050505085600185610d47919061194d565b81518110610d5857610d5761160e565b5b60200260200101819052505b5b8080600101915050610aab565b5050505090565b60016020528060005260406000206000915090508060000154908060010160009054906101000a900460ff16908060010160019054906101000a900473ffffffffffffffffffffffffffffffffffffffff16908060020154905084565b60606002805480602002602001604051908101604052809291908181526020016000905b82821015610ec85783829060005260206000209060020201604051806040016040529081600082018054610e2d9061173b565b80601f0160208091040260200160405190810160405280929190818152602001828054610e599061173b565b8015610ea65780601f10610e7b57610100808354040283529160200191610ea6565b820191906000526020600020905b815481529060010190602001808311610e8957829003601f168201915b5050505050815260200160018201548152505081526020019060010190610dfa565b50505050905090565b60008054906101000a900473ffffffffffffffffffffffffffffffffffffffff1681565b600080fd5b600080fd5b6000819050919050565b610f1281610eff565b8114610f1d57600080fd5b50565b600081359050610f2f81610f09565b92915050565b600060208284031215610f4b57610f4a610ef5565b5b6000610f5984828501610f20565b91505092915050565b600081519050919050565b600082825260208201905092915050565b6000819050602082019050919050565b600073ffffffffffffffffffffffffffffffffffffffff82169050919050565b6000610fb982610f8e565b9050919050565b610fc981610fae565b82525050565b6000610fdb8383610fc0565b60208301905092915050565b6000602082019050919050565b6000610fff82610f62565b6110098185610f6d565b935061101483610f7e565b8060005b8381101561104557815161102c8882610fcf565b975061103783610fe7565b925050600181019050611018565b5085935050505092915050565b6000602082019050818103600083015261106c8184610ff4565b905092915050565b600081519050919050565b600082825260208201905092915050565b60005b838110156110ae578082015181840152602081019050611093565b60008484015250505050565b6000601f19601f8301169050919050565b60006110d682611074565b6110e0818561107f565b93506110f0818560208601611090565b6110f9816110ba565b840191505092915050565b61110d81610eff565b82525050565b6000604082019050818103600083015261112d81856110cb565b905061113c6020830184611104565b9392505050565b61114c81610fae565b811461115757600080fd5b50565b60008135905061116981611143565b92915050565b60006020828403121561118557611184610ef5565b5b60006111938482850161115a565b91505092915050565b6111a581610fae565b82525050565b60006020820190506111c0600083018461119c565b92915050565b600080fd5b600080fd5b600080fd5b60008083601f8401126111eb576111ea6111c6565b5b8235905067ffffffffffffffff811115611208576112076111cb565b5b602083019150836020820283011115611224576112236111d0565b5b9250929050565b6000806020838503121561124257611241610ef5565b5b600083013567ffffffffffffffff8111156112605761125f610efa565b5b61126c858286016111d5565b92509250509250929050565b600081519050919050565b600082825260208201905092915050565b6000819050602082019050919050565b600082825260208201905092915050565b60006112c082611074565b6112ca81856112a4565b93506112da818560208601611090565b6112e3816110ba565b840191505092915050565b60006112fa83836112b5565b905092915050565b6000602082019050919050565b600061131a82611278565b6113248185611283565b93508360208202850161133685611294565b8060005b85811015611372578484038952815161135385826112ee565b945061135e83611302565b925060208a0199505060018101905061133a565b50829750879550505050505092915050565b6000602082019050818103600083015261139e818461130f565b905092915050565b60008115159050919050565b6113bb816113a6565b82525050565b60006080820190506113d66000830187611104565b6113e360208301866113b2565b6113f0604083018561119c565b6113fd6060830184611104565b95945050505050565b600081519050919050565b600082825260208201905092915050565b6000819050602082019050919050565b61143b81610eff565b82525050565b6000604083016000830151848203600086015261145e82826112b5565b91505060208301516114736020860182611432565b508091505092915050565b600061148a8383611441565b905092915050565b6000602082019050919050565b60006114aa82611406565b6114b48185611411565b9350836020820285016114c685611422565b8060005b8581101561150257848403895281516114e3858261147e565b94506114ee83611492565b925060208a019950506001810190506114ca565b50829750879550505050505092915050565b6000602082019050818103600083015261152e818461149f565b905092915050565b7f596f75206861766520766f74656420616c72656164792e000000000000000000600082015250565b600061156c60178361107f565b915061157782611536565b602082019050919050565b6000602082019050818103600083015261159b8161155f565b9050919050565b7f496e76616c69642043727970746f2049442e0000000000000000000000000000600082015250565b60006115d860128361107f565b91506115e3826115a2565b602082019050919050565b60006020820190508181036000830152611607816115cb565b9050919050565b7f4e487b7100000000000000000000000000000000000000000000000000000000600052603260045260246000fd5b7f4e487b7100000000000000000000000000000000000000000000000000000000600052601160045260246000fd5b600061167782610eff565b915061168283610eff565b925082820190508082111561169a5761169961163d565b5b92915050565b7f566f7465207375636365737366756c6c792e0000000000000000000000000000600082015250565b60006116d660128361107f565b91506116e1826116a0565b602082019050919050565b60006020820190508181036000830152611705816116c9565b9050919050565b7f4e487b7100000000000000000000000000000000000000000000000000000000600052602260045260246000fd5b6000600282049050600182168061175357607f821691505b6020821081036117665761176561170c565b5b50919050565b7f596f75206861766520766f7465642c206e6f206e65656420746f2064656c656760008201527f61746520796f757220766f74657320746f206f74686572732e00000000000000602082015250565b60006117c860398361107f565b91506117d38261176c565b604082019050919050565b600060208201905081810360008301526117f7816117bb565b9050919050565b7f43616e27742064656c656761746520746f2073656c662e000000000000000000600082015250565b600061183460178361107f565b915061183f826117fe565b602082019050919050565b6000602082019050818103600083015261186381611827565b9050919050565b7f64656c6567617465206c6f6f702e000000000000000000000000000000000000600082015250565b60006118a0600e8361107f565b91506118ab8261186a565b602082019050919050565b600060208201905081810360008301526118cf81611893565b9050919050565b7f4e487b7100000000000000000000000000000000000000000000000000000000600052604160045260246000fd5b600061191082610eff565b91507fffffffffffffffffffffffffffffffffffffffffffffffffffffffffffffffff82036119425761194161163d565b5b600182019050919050565b600061195882610eff565b915061196383610eff565b925082820390508181111561197b5761197a61163d565b5b9291505056fea264697066735822122019f8bdfda5878dd2331cc6683d6d20bc5d5ff2332123662a53e5e07288914d5864736f6c63430008180033",
  "linkReferences": {},
  "deployedLinkReferences": {}
}