{
  "_format": "hh-sol-artifact-1",
  "contractName": "VoteSystem",
  "sourceName": "contracts/VoteSystem.sol",
  "abi": [
    {
      "inputs": [
        {
          "internalType": "string[]",
          "name": "nameList",
          "type": "string[]"
        }
      ],
      "stateMutability": "nonpayable",
      "type": "constructor"
    },
    {
      "anonymous": false,
      "inputs": [
        {
          "indexed": false,
          "internalType": "string",
          "name": "",
          "type": "string"
        }
      ],
      "name": "voteSuccess",
      "type": "event"
    },
    {
      "inputs": [
        {
          "internalType": "uint256",
          "name": "",
          "type": "uint256"
        }
      ],
      "name": "board",
      "outputs": [
        {
          "internalType": "string",
          "name": "crypto",
          "type": "string"
        },
        {
          "internalType": "uint256",
          "name": "totalAmount",
          "type": "uint256"
        }
      ],
      "stateMutability": "view",
      "type": "function"
    },
    {
      "inputs": [
        {
          "internalType": "address",
          "name": "to",
          "type": "address"
        }
      ],
      "name": "delegate",
      "outputs": [],
      "stateMutability": "nonpayable",
      "type": "function"
    },
    {
      "inputs": [],
      "name": "getBoardInfo",
      "outputs": [
        {
          "components": [
            {
              "internalType": "string",
              "name": "crypto",
              "type": "string"
            },
            {
              "internalType": "uint256",
              "name": "totalAmount",
              "type": "uint256"
            }
          ],
          "internalType": "struct VoteSystem.Board[]",
          "name": "",
          "type": "tuple[]"
        }
      ],
      "stateMutability": "view",
      "type": "function"
    },
    {
      "inputs": [],
      "name": "getVotedVoters",
      "outputs": [
        {
          "internalType": "address[]",
          "name": "",
          "type": "address[]"
        }
      ],
      "stateMutability": "view",
      "type": "function"
    },
    {
      "inputs": [
        {
          "internalType": "address",
          "name": "voter",
          "type": "address"
        }
      ],
      "name": "getVoterWeight",
      "outputs": [
        {
          "internalType": "uint256",
          "name": "weight",
          "type": "uint256"
        }
      ],
      "stateMutability": "view",
      "type": "function"
    },
    {
      "inputs": [],
      "name": "getWinner",
      "outputs": [
        {
          "internalType": "string[]",
          "name": "winnerList",
          "type": "string[]"
        }
      ],
      "stateMutability": "view",
      "type": "function"
    },
    {
      "inputs": [],
      "name": "host",
      "outputs": [
        {
          "internalType": "address",
          "name": "",
          "type": "address"
        }
      ],
      "stateMutability": "view",
      "type": "function"
    },
    {
      "inputs": [
        {
          "internalType": "address[]",
          "name": "addressList",
          "type": "address[]"
        }
      ],
      "name": "mandate",
      "outputs": [],
      "stateMutability": "nonpayable",
      "type": "function"
    },
    {
      "inputs": [
        {
          "internalType": "uint256",
          "name": "cryptoId",
          "type": "uint256"
        }
      ],
      "name": "vote",
      "outputs": [],
      "stateMutability": "nonpayable",
      "type": "function"
    },
    {
      "inputs": [
        {
          "internalType": "uint256",
          "name": "",
          "type": "uint256"
        }
      ],
      "name": "votedVoters",
      "outputs": [
        {
          "internalType": "address",
          "name": "",
          "type": "address"
        }
      ],
      "stateMutability": "view",
      "type": "function"
    },
    {
      "inputs": [
        {
          "internalType": "address",
          "name": "",
          "type": "address"
        }
      ],
      "name": "voters",
      "outputs": [
        {
          "internalType": "uint256",
          "name": "weight",
          "type": "uint256"
        },
        {
          "internalType": "bool",
          "name": "isVoted",
          "type": "bool"
        },
        {
          "internalType": "address",
          "name": "delegator",
          "type": "address"
        },
        {
          "internalType": "uint256",
          "name": "cryptoId",
          "type": "uint256"
        }
      ],
      "stateMutability": "view",
      "type": "function"
    }
  ],
  "bytecode": "0x60806040523480156200001157600080fd5b50604051620023f7380380620023f7833981810160405281019062000037919062000419565b336000806101000a81548173ffffffffffffffffffffffffffffffffffffffff021916908373ffffffffffffffffffffffffffffffffffffffff16021790555060018060008060009054906101000a900473ffffffffffffffffffffffffffffffffffffffff1673ffffffffffffffffffffffffffffffffffffffff1673ffffffffffffffffffffffffffffffffffffffff1681526020019081526020016000206000018190555060005b81518110156200018257600060405180604001604052808484815181106200010f576200010e6200046a565b5b602002602001015181526020016000815250905060028190806001815401808255809150506001900390600052602060002090600202016000909190919091506000820151816000019081620001669190620006e4565b50602082015181600101555050508080600101915050620000e2565b5050620007cb565b6000604051905090565b600080fd5b600080fd5b600080fd5b6000601f19601f8301169050919050565b7f4e487b7100000000000000000000000000000000000000000000000000000000600052604160045260246000fd5b620001ee82620001a3565b810181811067ffffffffffffffff8211171562000210576200020f620001b4565b5b80604052505050565b6000620002256200018a565b9050620002338282620001e3565b919050565b600067ffffffffffffffff821115620002565762000255620001b4565b5b602082029050602081019050919050565b600080fd5b600080fd5b600067ffffffffffffffff8211156200028f576200028e620001b4565b5b6200029a82620001a3565b9050602081019050919050565b60005b83811015620002c7578082015181840152602081019050620002aa565b60008484015250505050565b6000620002ea620002e48462000271565b62000219565b9050828152602081018484840111156200030957620003086200026c565b5b62000316848285620002a7565b509392505050565b600082601f8301126200033657620003356200019e565b5b815162000348848260208601620002d3565b91505092915050565b600062000368620003628462000238565b62000219565b905080838252602082019050602084028301858111156200038e576200038d62000267565b5b835b81811015620003dc57805167ffffffffffffffff811115620003b757620003b66200019e565b5b808601620003c689826200031e565b8552602085019450505060208101905062000390565b5050509392505050565b600082601f830112620003fe57620003fd6200019e565b5b81516200041084826020860162000351565b91505092915050565b60006020828403121562000432576200043162000194565b5b600082015167ffffffffffffffff81111562000453576200045262000199565b5b6200046184828501620003e6565b91505092915050565b7f4e487b7100000000000000000000000000000000000000000000000000000000600052603260045260246000fd5b600081519050919050565b7f4e487b7100000000000000000000000000000000000000000000000000000000600052602260045260246000fd5b60006002820490506001821680620004ec57607f821691505b602082108103620005025762000501620004a4565b5b50919050565b60008190508160005260206000209050919050565b60006020601f8301049050919050565b600082821b905092915050565b6000600883026200056c7fffffffffffffffffffffffffffffffffffffffffffffffffffffffffffffffff826200052d565b6200057886836200052d565b95508019841693508086168417925050509392505050565b6000819050919050565b6000819050919050565b6000620005c5620005bf620005b98462000590565b6200059a565b62000590565b9050919050565b6000819050919050565b620005e183620005a4565b620005f9620005f082620005cc565b8484546200053a565b825550505050565b600090565b6200061062000601565b6200061d818484620005d6565b505050565b5b8181101562000645576200063960008262000606565b60018101905062000623565b5050565b601f82111562000694576200065e8162000508565b62000669846200051d565b8101602085101562000679578190505b6200069162000688856200051d565b83018262000622565b50505b505050565b600082821c905092915050565b6000620006b96000198460080262000699565b1980831691505092915050565b6000620006d48383620006a6565b9150826002028217905092915050565b620006ef8262000499565b67ffffffffffffffff8111156200070b576200070a620001b4565b5b620007178254620004d3565b6200072482828562000649565b600060209050601f8311600181146200075c576000841562000747578287015190505b620007538582620006c6565b865550620007c3565b601f1984166200076c8662000508565b60005b8281101562000796578489015182556001820191506020850194506020810190506200076f565b86831015620007b65784890151620007b2601f891682620006a6565b8355505b6001600288020188555050505b505050505050565b611c1c80620007db6000396000f3fe608060405234801561001057600080fd5b50600436106100a95760003560e01c80638760c761116100715780638760c761146101655780638e7ea5b214610181578063a3ec138d1461019f578063d85c91ae146101d2578063ed34c6ee14610202578063f437bc5914610220576100a9565b80630121b93f146100ae578063189d2958146100ca57806328ed6e3f146100e85780635c19a95c146101195780637831ffb314610135575b600080fd5b6100c860048036038101906100c39190611150565b61023e565b005b6100d261041c565b6040516100df919061126d565b60405180910390f35b61010260048036038101906100fd9190611150565b6104aa565b60405161011092919061132e565b60405180910390f35b610133600480360381019061012e919061138a565b610566565b005b61014f600480360381019061014a9190611150565b61093e565b60405161015c91906113c6565b60405180910390f35b61017f600480360381019061017a9190611446565b61097d565b005b610189610b2f565b604051610196919061159f565b60405180910390f35b6101b960048036038101906101b4919061138a565b610e5c565b6040516101c994939291906115dc565b60405180910390f35b6101ec60048036038101906101e7919061138a565b610eb9565b6040516101f99190611621565b60405180910390f35b61020a610f05565b604051610217919061174a565b60405180910390f35b610228611000565b60405161023591906113c6565b60405180910390f35b6000600160003373ffffffffffffffffffffffffffffffffffffffff1673ffffffffffffffffffffffffffffffffffffffff16815260200190815260200160002090508060010160009054906101000a900460ff16156102d3576040517f08c379a00000000000000000000000000000000000000000000000000000000081526004016102ca906117b8565b60405180910390fd5b600280549050821061031a576040517f08c379a000000000000000000000000000000000000000000000000000000000815260040161031190611824565b60405180910390fd5b60018160010160006101000a81548160ff0219169083151502179055506003339080600181540180825580915050600190039060005260206000200160009091909190916101000a81548173ffffffffffffffffffffffffffffffffffffffff021916908373ffffffffffffffffffffffffffffffffffffffff1602179055508181600201819055508060000154600283815481106103bc576103bb611844565b5b906000526020600020906002020160010160008282546103dc91906118a2565b925050819055507f71811a05f98c0d6a3ee4d373e7d62d53422d5baf858d802816efce275df7d3fa60405161041090611922565b60405180910390a15050565b606060038054806020026020016040519081016040528092919081815260200182805480156104a057602002820191906000526020600020905b8160009054906101000a900473ffffffffffffffffffffffffffffffffffffffff1673ffffffffffffffffffffffffffffffffffffffff1681526020019060010190808311610456575b5050505050905090565b600281815481106104ba57600080fd5b90600052602060002090600202016000915090508060000180546104dd90611971565b80601f016020809104026020016040519081016040528092919081815260200182805461050990611971565b80156105565780601f1061052b57610100808354040283529160200191610556565b820191906000526020600020905b81548152906001019060200180831161053957829003601f168201915b5050505050908060010154905082565b6000600160003373ffffffffffffffffffffffffffffffffffffffff1673ffffffffffffffffffffffffffffffffffffffff1681526020019081526020016000209050600160003373ffffffffffffffffffffffffffffffffffffffff1673ffffffffffffffffffffffffffffffffffffffff16815260200190815260200160002060010160009054906101000a900460ff1615610639576040517f08c379a000000000000000000000000000000000000000000000000000000000815260040161063090611a14565b60405180910390fd5b8173ffffffffffffffffffffffffffffffffffffffff163373ffffffffffffffffffffffffffffffffffffffff16036106a7576040517f08c379a000000000000000000000000000000000000000000000000000000000815260040161069e90611a80565b60405180910390fd5b5b600073ffffffffffffffffffffffffffffffffffffffff16600160008473ffffffffffffffffffffffffffffffffffffffff1673ffffffffffffffffffffffffffffffffffffffff16815260200190815260200160002060010160019054906101000a900473ffffffffffffffffffffffffffffffffffffffff1673ffffffffffffffffffffffffffffffffffffffff161461081657600160008373ffffffffffffffffffffffffffffffffffffffff1673ffffffffffffffffffffffffffffffffffffffff16815260200190815260200160002060010160019054906101000a900473ffffffffffffffffffffffffffffffffffffffff1691503373ffffffffffffffffffffffffffffffffffffffff168273ffffffffffffffffffffffffffffffffffffffff1603610811576040517f08c379a000000000000000000000000000000000000000000000000000000000815260040161080890611aec565b60405180910390fd5b6106a8565b60018160010160006101000a81548160ff021916908315150217905550818160010160016101000a81548173ffffffffffffffffffffffffffffffffffffffff021916908373ffffffffffffffffffffffffffffffffffffffff1602179055506000600160008473ffffffffffffffffffffffffffffffffffffffff1673ffffffffffffffffffffffffffffffffffffffff16815260200190815260200160002090508060010160009054906101000a900460ff161561091957816000015460028260020154815481106108ed576108ec611844565b5b9060005260206000209060020201600101600082825461090d91906118a2565b92505081905550610939565b816000015481600001600082825461093191906118a2565b925050819055505b505050565b6003818154811061094e57600080fd5b906000526020600020016000915054906101000a900473ffffffffffffffffffffffffffffffffffffffff1681565b60005b82829050811015610b2a57600160008484848181106109a2576109a1611844565b5b90506020020160208101906109b7919061138a565b73ffffffffffffffffffffffffffffffffffffffff1673ffffffffffffffffffffffffffffffffffffffff16815260200190815260200160002060010160009054906101000a900460ff16610b1d576001806000858585818110610a1e57610a1d611844565b5b9050602002016020810190610a33919061138a565b73ffffffffffffffffffffffffffffffffffffffff1673ffffffffffffffffffffffffffffffffffffffff16815260200190815260200160002060000181905550610b1c6040518060400160405280601881526020017f576569676874204166746572204d616e646174696e673a20000000000000000081525060016000868686818110610ac457610ac3611844565b5b9050602002016020810190610ad9919061138a565b73ffffffffffffffffffffffffffffffffffffffff1673ffffffffffffffffffffffffffffffffffffffff16815260200190815260200160002060000154611024565b5b8080600101915050610980565b505050565b6060600080600060028054905067ffffffffffffffff811115610b5557610b54611b0c565b5b604051908082528060200260200182016040528015610b8857816020015b6060815260200190600190039081610b735790505b50935060005b600280549050811015610e55578360028281548110610bb057610baf611844565b5b90600052602060002090600202016001015403610cb2578280610bd290611b3b565b93505060028181548110610be957610be8611844565b5b90600052602060002090600202016000018054610c0590611971565b80601f0160208091040260200160405190810160405280929190818152602001828054610c3190611971565b8015610c7e5780601f10610c5357610100808354040283529160200191610c7e565b820191906000526020600020905b815481529060010190602001808311610c6157829003601f168201915b505050505085600185610c919190611b83565b81518110610ca257610ca1611844565b5b6020026020010181905250610e48565b8360028281548110610cc757610cc6611844565b5b9060005260206000209060020201600101541115610e475760028181548110610cf357610cf2611844565b5b90600052602060002090600202016001015493508091506001925080600280549050610d1f9190611b83565b67ffffffffffffffff811115610d3857610d37611b0c565b5b604051908082528060200260200182016040528015610d6b57816020015b6060815260200190600190039081610d565790505b50945060028181548110610d8257610d81611844565b5b90600052602060002090600202016000018054610d9e90611971565b80601f0160208091040260200160405190810160405280929190818152602001828054610dca90611971565b8015610e175780601f10610dec57610100808354040283529160200191610e17565b820191906000526020600020905b815481529060010190602001808311610dfa57829003601f168201915b505050505085600185610e2a9190611b83565b81518110610e3b57610e3a611844565b5b60200260200101819052505b5b8080600101915050610b8e565b5050505090565b60016020528060005260406000206000915090508060000154908060010160009054906101000a900460ff16908060010160019054906101000a900473ffffffffffffffffffffffffffffffffffffffff16908060020154905084565b6000600160008373ffffffffffffffffffffffffffffffffffffffff1673ffffffffffffffffffffffffffffffffffffffff168152602001908152602001600020600001549050919050565b60606002805480602002602001604051908101604052809291908181526020016000905b82821015610ff75783829060005260206000209060020201604051806040016040529081600082018054610f5c90611971565b80601f0160208091040260200160405190810160405280929190818152602001828054610f8890611971565b8015610fd55780601f10610faa57610100808354040283529160200191610fd5565b820191906000526020600020905b815481529060010190602001808311610fb857829003601f168201915b5050505050815260200160018201548152505081526020019060010190610f29565b50505050905090565b60008054906101000a900473ffffffffffffffffffffffffffffffffffffffff1681565b6110bc828260405160240161103a92919061132e565b6040516020818303038152906040527fb60e72cc000000000000000000000000000000000000000000000000000000007bffffffffffffffffffffffffffffffffffffffffffffffffffffffff19166020820180517bffffffffffffffffffffffffffffffffffffffffffffffffffffffff83818316178352505050506110c0565b5050565b6110d7816110cf6110da6110fb565b63ffffffff16565b50565b60006a636f6e736f6c652e6c6f679050600080835160208501845afa505050565b611106819050919050565b61110e611bb7565b565b600080fd5b600080fd5b6000819050919050565b61112d8161111a565b811461113857600080fd5b50565b60008135905061114a81611124565b92915050565b60006020828403121561116657611165611110565b5b60006111748482850161113b565b91505092915050565b600081519050919050565b600082825260208201905092915050565b6000819050602082019050919050565b600073ffffffffffffffffffffffffffffffffffffffff82169050919050565b60006111d4826111a9565b9050919050565b6111e4816111c9565b82525050565b60006111f683836111db565b60208301905092915050565b6000602082019050919050565b600061121a8261117d565b6112248185611188565b935061122f83611199565b8060005b8381101561126057815161124788826111ea565b975061125283611202565b925050600181019050611233565b5085935050505092915050565b60006020820190508181036000830152611287818461120f565b905092915050565b600081519050919050565b600082825260208201905092915050565b60005b838110156112c95780820151818401526020810190506112ae565b60008484015250505050565b6000601f19601f8301169050919050565b60006112f18261128f565b6112fb818561129a565b935061130b8185602086016112ab565b611314816112d5565b840191505092915050565b6113288161111a565b82525050565b6000604082019050818103600083015261134881856112e6565b9050611357602083018461131f565b9392505050565b611367816111c9565b811461137257600080fd5b50565b6000813590506113848161135e565b92915050565b6000602082840312156113a05761139f611110565b5b60006113ae84828501611375565b91505092915050565b6113c0816111c9565b82525050565b60006020820190506113db60008301846113b7565b92915050565b600080fd5b600080fd5b600080fd5b60008083601f840112611406576114056113e1565b5b8235905067ffffffffffffffff811115611423576114226113e6565b5b60208301915083602082028301111561143f5761143e6113eb565b5b9250929050565b6000806020838503121561145d5761145c611110565b5b600083013567ffffffffffffffff81111561147b5761147a611115565b5b611487858286016113f0565b92509250509250929050565b600081519050919050565b600082825260208201905092915050565b6000819050602082019050919050565b600082825260208201905092915050565b60006114db8261128f565b6114e581856114bf565b93506114f58185602086016112ab565b6114fe816112d5565b840191505092915050565b600061151583836114d0565b905092915050565b6000602082019050919050565b600061153582611493565b61153f818561149e565b935083602082028501611551856114af565b8060005b8581101561158d578484038952815161156e8582611509565b94506115798361151d565b925060208a01995050600181019050611555565b50829750879550505050505092915050565b600060208201905081810360008301526115b9818461152a565b905092915050565b60008115159050919050565b6115d6816115c1565b82525050565b60006080820190506115f1600083018761131f565b6115fe60208301866115cd565b61160b60408301856113b7565b611618606083018461131f565b95945050505050565b6000602082019050611636600083018461131f565b92915050565b600081519050919050565b600082825260208201905092915050565b6000819050602082019050919050565b6116718161111a565b82525050565b6000604083016000830151848203600086015261169482826114d0565b91505060208301516116a96020860182611668565b508091505092915050565b60006116c08383611677565b905092915050565b6000602082019050919050565b60006116e08261163c565b6116ea8185611647565b9350836020820285016116fc85611658565b8060005b85811015611738578484038952815161171985826116b4565b9450611724836116c8565b925060208a01995050600181019050611700565b50829750879550505050505092915050565b6000602082019050818103600083015261176481846116d5565b905092915050565b7f596f75206861766520766f74656420616c72656164792e000000000000000000600082015250565b60006117a260178361129a565b91506117ad8261176c565b602082019050919050565b600060208201905081810360008301526117d181611795565b9050919050565b7f496e76616c69642043727970746f2049442e0000000000000000000000000000600082015250565b600061180e60128361129a565b9150611819826117d8565b602082019050919050565b6000602082019050818103600083015261183d81611801565b9050919050565b7f4e487b7100000000000000000000000000000000000000000000000000000000600052603260045260246000fd5b7f4e487b7100000000000000000000000000000000000000000000000000000000600052601160045260246000fd5b60006118ad8261111a565b91506118b88361111a565b92508282019050808211156118d0576118cf611873565b5b92915050565b7f566f7465207375636365737366756c6c792e0000000000000000000000000000600082015250565b600061190c60128361129a565b9150611917826118d6565b602082019050919050565b6000602082019050818103600083015261193b816118ff565b9050919050565b7f4e487b7100000000000000000000000000000000000000000000000000000000600052602260045260246000fd5b6000600282049050600182168061198957607f821691505b60208210810361199c5761199b611942565b5b50919050565b7f596f75206861766520766f7465642c206e6f206e65656420746f2064656c656760008201527f61746520796f757220766f74657320746f206f74686572732e00000000000000602082015250565b60006119fe60398361129a565b9150611a09826119a2565b604082019050919050565b60006020820190508181036000830152611a2d816119f1565b9050919050565b7f43616e27742064656c656761746520746f2073656c662e000000000000000000600082015250565b6000611a6a60178361129a565b9150611a7582611a34565b602082019050919050565b60006020820190508181036000830152611a9981611a5d565b9050919050565b7f64656c6567617465206c6f6f702e000000000000000000000000000000000000600082015250565b6000611ad6600e8361129a565b9150611ae182611aa0565b602082019050919050565b60006020820190508181036000830152611b0581611ac9565b9050919050565b7f4e487b7100000000000000000000000000000000000000000000000000000000600052604160045260246000fd5b6000611b468261111a565b91507fffffffffffffffffffffffffffffffffffffffffffffffffffffffffffffffff8203611b7857611b77611873565b5b600182019050919050565b6000611b8e8261111a565b9150611b998361111a565b9250828203905081811115611bb157611bb0611873565b5b92915050565b7f4e487b7100000000000000000000000000000000000000000000000000000000600052605160045260246000fdfea264697066735822122080bf544c3950dd56776429edc695819f4f746a16c941474ad95ead6300d4624164736f6c63430008180033",
  "linkReferences": {},
  "deployedLinkReferences": {}
}