{
  "_format": "hh-sol-artifact-1",
  "contractName": "VoteSystem",
  "sourceName": "contracts/VoteSystem.sol",
  "abi": [
    {
      "inputs": [
        {
          "internalType": "string[]",
          "name": "nameList",
          "type": "string[]"
        }
      ],
      "stateMutability": "nonpayable",
      "type": "constructor"
    },
    {
      "anonymous": false,
      "inputs": [
        {
          "indexed": false,
          "internalType": "string",
          "name": "",
          "type": "string"
        }
      ],
      "name": "voteSuccess",
      "type": "event"
    },
    {
      "inputs": [
        {
          "internalType": "uint256",
          "name": "",
          "type": "uint256"
        }
      ],
      "name": "board",
      "outputs": [
        {
          "internalType": "string",
          "name": "crypto",
          "type": "string"
        },
        {
          "internalType": "uint256",
          "name": "totalAmount",
          "type": "uint256"
        }
      ],
      "stateMutability": "view",
      "type": "function"
    },
    {
      "inputs": [
        {
          "internalType": "address",
          "name": "to",
          "type": "address"
        }
      ],
      "name": "delegate",
      "outputs": [],
      "stateMutability": "nonpayable",
      "type": "function"
    },
    {
      "inputs": [],
      "name": "getBoardInfo",
      "outputs": [
        {
          "components": [
            {
              "internalType": "string",
              "name": "crypto",
              "type": "string"
            },
            {
              "internalType": "uint256",
              "name": "totalAmount",
              "type": "uint256"
            }
          ],
          "internalType": "struct VoteSystem.Board[]",
          "name": "",
          "type": "tuple[]"
        }
      ],
      "stateMutability": "view",
      "type": "function"
    },
    {
      "inputs": [],
      "name": "getVotedVoters",
      "outputs": [
        {
          "internalType": "address[]",
          "name": "",
          "type": "address[]"
        }
      ],
      "stateMutability": "view",
      "type": "function"
    },
    {
      "inputs": [
        {
          "internalType": "address",
          "name": "voter",
          "type": "address"
        }
      ],
      "name": "getVoterFlag",
      "outputs": [
        {
          "internalType": "bool",
          "name": "isMandated",
          "type": "bool"
        }
      ],
      "stateMutability": "view",
      "type": "function"
    },
    {
      "inputs": [
        {
          "internalType": "address",
          "name": "voter",
          "type": "address"
        }
      ],
      "name": "getVoterWeight",
      "outputs": [
        {
          "internalType": "uint256",
          "name": "weight",
          "type": "uint256"
        }
      ],
      "stateMutability": "view",
      "type": "function"
    },
    {
      "inputs": [],
      "name": "getWinner",
      "outputs": [
        {
          "internalType": "string[]",
          "name": "winnerList",
          "type": "string[]"
        }
      ],
      "stateMutability": "view",
      "type": "function"
    },
    {
      "inputs": [],
      "name": "host",
      "outputs": [
        {
          "internalType": "address",
          "name": "",
          "type": "address"
        }
      ],
      "stateMutability": "view",
      "type": "function"
    },
    {
      "inputs": [],
      "name": "inFunction",
      "outputs": [
        {
          "internalType": "bool",
          "name": "",
          "type": "bool"
        }
      ],
      "stateMutability": "view",
      "type": "function"
    },
    {
      "inputs": [
        {
          "internalType": "address[]",
          "name": "addressList",
          "type": "address[]"
        }
      ],
      "name": "mandate",
      "outputs": [],
      "stateMutability": "nonpayable",
      "type": "function"
    },
    {
      "inputs": [
        {
          "internalType": "uint256",
          "name": "cryptoId",
          "type": "uint256"
        }
      ],
      "name": "vote",
      "outputs": [],
      "stateMutability": "nonpayable",
      "type": "function"
    },
    {
      "inputs": [
        {
          "internalType": "uint256",
          "name": "",
          "type": "uint256"
        }
      ],
      "name": "votedVoters",
      "outputs": [
        {
          "internalType": "address",
          "name": "",
          "type": "address"
        }
      ],
      "stateMutability": "view",
      "type": "function"
    },
    {
      "inputs": [
        {
          "internalType": "address",
          "name": "",
          "type": "address"
        }
      ],
      "name": "voters",
      "outputs": [
        {
          "internalType": "uint256",
          "name": "weight",
          "type": "uint256"
        },
        {
          "internalType": "bool",
          "name": "isVoted",
          "type": "bool"
        },
        {
          "internalType": "bool",
          "name": "isMandated",
          "type": "bool"
        },
        {
          "internalType": "address",
          "name": "delegator",
          "type": "address"
        },
        {
          "internalType": "uint256",
          "name": "cryptoId",
          "type": "uint256"
        }
      ],
      "stateMutability": "view",
      "type": "function"
    }
  ],
  "bytecode": "0x60806040523480156200001157600080fd5b50604051620025b1380380620025b1833981810160405281019062000037919062000419565b336000806101000a81548173ffffffffffffffffffffffffffffffffffffffff021916908373ffffffffffffffffffffffffffffffffffffffff16021790555060018060008060009054906101000a900473ffffffffffffffffffffffffffffffffffffffff1673ffffffffffffffffffffffffffffffffffffffff1673ffffffffffffffffffffffffffffffffffffffff1681526020019081526020016000206000018190555060005b81518110156200018257600060405180604001604052808484815181106200010f576200010e6200046a565b5b602002602001015181526020016000815250905060028190806001815401808255809150506001900390600052602060002090600202016000909190919091506000820151816000019081620001669190620006e4565b50602082015181600101555050508080600101915050620000e2565b5050620007cb565b6000604051905090565b600080fd5b600080fd5b600080fd5b6000601f19601f8301169050919050565b7f4e487b7100000000000000000000000000000000000000000000000000000000600052604160045260246000fd5b620001ee82620001a3565b810181811067ffffffffffffffff8211171562000210576200020f620001b4565b5b80604052505050565b6000620002256200018a565b9050620002338282620001e3565b919050565b600067ffffffffffffffff821115620002565762000255620001b4565b5b602082029050602081019050919050565b600080fd5b600080fd5b600067ffffffffffffffff8211156200028f576200028e620001b4565b5b6200029a82620001a3565b9050602081019050919050565b60005b83811015620002c7578082015181840152602081019050620002aa565b60008484015250505050565b6000620002ea620002e48462000271565b62000219565b9050828152602081018484840111156200030957620003086200026c565b5b62000316848285620002a7565b509392505050565b600082601f8301126200033657620003356200019e565b5b815162000348848260208601620002d3565b91505092915050565b600062000368620003628462000238565b62000219565b905080838252602082019050602084028301858111156200038e576200038d62000267565b5b835b81811015620003dc57805167ffffffffffffffff811115620003b757620003b66200019e565b5b808601620003c689826200031e565b8552602085019450505060208101905062000390565b5050509392505050565b600082601f830112620003fe57620003fd6200019e565b5b81516200041084826020860162000351565b91505092915050565b60006020828403121562000432576200043162000194565b5b600082015167ffffffffffffffff81111562000453576200045262000199565b5b6200046184828501620003e6565b91505092915050565b7f4e487b7100000000000000000000000000000000000000000000000000000000600052603260045260246000fd5b600081519050919050565b7f4e487b7100000000000000000000000000000000000000000000000000000000600052602260045260246000fd5b60006002820490506001821680620004ec57607f821691505b602082108103620005025762000501620004a4565b5b50919050565b60008190508160005260206000209050919050565b60006020601f8301049050919050565b600082821b905092915050565b6000600883026200056c7fffffffffffffffffffffffffffffffffffffffffffffffffffffffffffffffff826200052d565b6200057886836200052d565b95508019841693508086168417925050509392505050565b6000819050919050565b6000819050919050565b6000620005c5620005bf620005b98462000590565b6200059a565b62000590565b9050919050565b6000819050919050565b620005e183620005a4565b620005f9620005f082620005cc565b8484546200053a565b825550505050565b600090565b6200061062000601565b6200061d818484620005d6565b505050565b5b8181101562000645576200063960008262000606565b60018101905062000623565b5050565b601f82111562000694576200065e8162000508565b62000669846200051d565b8101602085101562000679578190505b6200069162000688856200051d565b83018262000622565b50505b505050565b600082821c905092915050565b6000620006b96000198460080262000699565b1980831691505092915050565b6000620006d48383620006a6565b9150826002028217905092915050565b620006ef8262000499565b67ffffffffffffffff8111156200070b576200070a620001b4565b5b620007178254620004d3565b6200072482828562000649565b600060209050601f8311600181146200075c576000841562000747578287015190505b620007538582620006c6565b865550620007c3565b601f1984166200076c8662000508565b60005b8281101562000796578489015182556001820191506020850194506020810190506200076f565b86831015620007b65784890151620007b2601f891682620006a6565b8355505b6001600288020188555050505b505050505050565b611dd680620007db6000396000f3fe608060405234801561001057600080fd5b50600436106100cf5760003560e01c80637831ffb31161008c578063a3ec138d11610066578063a3ec138d14610213578063d85c91ae14610247578063ed34c6ee14610277578063f437bc5914610295576100cf565b80637831ffb3146101a95780638760c761146101d95780638e7ea5b2146101f5576100cf565b80630121b93f146100d45780630f4edae4146100f0578063189d29581461012057806328ed6e3f1461013e5780635c19a95c1461016f5780636c4efd1d1461018b575b600080fd5b6100ee60048036038101906100e991906112e1565b6102b3565b005b61010a6004803603810190610105919061136c565b610491565b60405161011791906113b4565b60405180910390f35b6101286104ea565b604051610135919061148d565b60405180910390f35b610158600480360381019061015391906112e1565b610578565b60405161016692919061154e565b60405180910390f35b6101896004803603810190610184919061136c565b610634565b005b610193610a0c565b6040516101a091906113b4565b60405180910390f35b6101c360048036038101906101be91906112e1565b610a1f565b6040516101d0919061158d565b60405180910390f35b6101f360048036038101906101ee919061160d565b610a5e565b005b6101fd610cad565b60405161020a9190611766565b60405180910390f35b61022d6004803603810190610228919061136c565b610fda565b60405161023e959493929190611788565b60405180910390f35b610261600480360381019061025c919061136c565b61104a565b60405161026e91906117db565b60405180910390f35b61027f611096565b60405161028c9190611904565b60405180910390f35b61029d611191565b6040516102aa919061158d565b60405180910390f35b6000600160003373ffffffffffffffffffffffffffffffffffffffff1673ffffffffffffffffffffffffffffffffffffffff16815260200190815260200160002090508060010160009054906101000a900460ff1615610348576040517f08c379a000000000000000000000000000000000000000000000000000000000815260040161033f90611972565b60405180910390fd5b600280549050821061038f576040517f08c379a0000000000000000000000000000000000000000000000000000000008152600401610386906119de565b60405180910390fd5b60018160010160006101000a81548160ff0219169083151502179055506003339080600181540180825580915050600190039060005260206000200160009091909190916101000a81548173ffffffffffffffffffffffffffffffffffffffff021916908373ffffffffffffffffffffffffffffffffffffffff160217905550818160020181905550806000015460028381548110610431576104306119fe565b5b906000526020600020906002020160010160008282546104519190611a5c565b925050819055507f71811a05f98c0d6a3ee4d373e7d62d53422d5baf858d802816efce275df7d3fa60405161048590611adc565b60405180910390a15050565b6000600160008373ffffffffffffffffffffffffffffffffffffffff1673ffffffffffffffffffffffffffffffffffffffff16815260200190815260200160002060010160019054906101000a900460ff169050919050565b6060600380548060200260200160405190810160405280929190818152602001828054801561056e57602002820191906000526020600020905b8160009054906101000a900473ffffffffffffffffffffffffffffffffffffffff1673ffffffffffffffffffffffffffffffffffffffff1681526020019060010190808311610524575b5050505050905090565b6002818154811061058857600080fd5b90600052602060002090600202016000915090508060000180546105ab90611b2b565b80601f01602080910402602001604051908101604052809291908181526020018280546105d790611b2b565b80156106245780601f106105f957610100808354040283529160200191610624565b820191906000526020600020905b81548152906001019060200180831161060757829003601f168201915b5050505050908060010154905082565b6000600160003373ffffffffffffffffffffffffffffffffffffffff1673ffffffffffffffffffffffffffffffffffffffff1681526020019081526020016000209050600160003373ffffffffffffffffffffffffffffffffffffffff1673ffffffffffffffffffffffffffffffffffffffff16815260200190815260200160002060010160009054906101000a900460ff1615610707576040517f08c379a00000000000000000000000000000000000000000000000000000000081526004016106fe90611bce565b60405180910390fd5b8173ffffffffffffffffffffffffffffffffffffffff163373ffffffffffffffffffffffffffffffffffffffff1603610775576040517f08c379a000000000000000000000000000000000000000000000000000000000815260040161076c90611c3a565b60405180910390fd5b5b600073ffffffffffffffffffffffffffffffffffffffff16600160008473ffffffffffffffffffffffffffffffffffffffff1673ffffffffffffffffffffffffffffffffffffffff16815260200190815260200160002060010160029054906101000a900473ffffffffffffffffffffffffffffffffffffffff1673ffffffffffffffffffffffffffffffffffffffff16146108e457600160008373ffffffffffffffffffffffffffffffffffffffff1673ffffffffffffffffffffffffffffffffffffffff16815260200190815260200160002060010160029054906101000a900473ffffffffffffffffffffffffffffffffffffffff1691503373ffffffffffffffffffffffffffffffffffffffff168273ffffffffffffffffffffffffffffffffffffffff16036108df576040517f08c379a00000000000000000000000000000000000000000000000000000000081526004016108d690611ca6565b60405180910390fd5b610776565b60018160010160006101000a81548160ff021916908315150217905550818160010160026101000a81548173ffffffffffffffffffffffffffffffffffffffff021916908373ffffffffffffffffffffffffffffffffffffffff1602179055506000600160008473ffffffffffffffffffffffffffffffffffffffff1673ffffffffffffffffffffffffffffffffffffffff16815260200190815260200160002090508060010160009054906101000a900460ff16156109e757816000015460028260020154815481106109bb576109ba6119fe565b5b906000526020600020906002020160010160008282546109db9190611a5c565b92505081905550610a07565b81600001548160000160008282546109ff9190611a5c565b925050819055505b505050565b600060149054906101000a900460ff1681565b60038181548110610a2f57600080fd5b906000526020600020016000915054906101000a900473ffffffffffffffffffffffffffffffffffffffff1681565b600180600084846000818110610a7757610a766119fe565b5b9050602002016020810190610a8c919061136c565b73ffffffffffffffffffffffffffffffffffffffff1673ffffffffffffffffffffffffffffffffffffffff16815260200190815260200160002060010160016101000a81548160ff0219169083151502179055506001600060146101000a81548160ff02191690831515021790555060005b82829050811015610ca85760016000848484818110610b2057610b1f6119fe565b5b9050602002016020810190610b35919061136c565b73ffffffffffffffffffffffffffffffffffffffff1673ffffffffffffffffffffffffffffffffffffffff16815260200190815260200160002060010160009054906101000a900460ff16610c9b576001806000858585818110610b9c57610b9b6119fe565b5b9050602002016020810190610bb1919061136c565b73ffffffffffffffffffffffffffffffffffffffff1673ffffffffffffffffffffffffffffffffffffffff16815260200190815260200160002060000181905550610c9a6040518060400160405280601881526020017f576569676874204166746572204d616e646174696e673a20000000000000000081525060016000868686818110610c4257610c416119fe565b5b9050602002016020810190610c57919061136c565b73ffffffffffffffffffffffffffffffffffffffff1673ffffffffffffffffffffffffffffffffffffffff168152602001908152602001600020600001546111b5565b5b8080600101915050610afe565b505050565b6060600080600060028054905067ffffffffffffffff811115610cd357610cd2611cc6565b5b604051908082528060200260200182016040528015610d0657816020015b6060815260200190600190039081610cf15790505b50935060005b600280549050811015610fd3578360028281548110610d2e57610d2d6119fe565b5b90600052602060002090600202016001015403610e30578280610d5090611cf5565b93505060028181548110610d6757610d666119fe565b5b90600052602060002090600202016000018054610d8390611b2b565b80601f0160208091040260200160405190810160405280929190818152602001828054610daf90611b2b565b8015610dfc5780601f10610dd157610100808354040283529160200191610dfc565b820191906000526020600020905b815481529060010190602001808311610ddf57829003601f168201915b505050505085600185610e0f9190611d3d565b81518110610e2057610e1f6119fe565b5b6020026020010181905250610fc6565b8360028281548110610e4557610e446119fe565b5b9060005260206000209060020201600101541115610fc55760028181548110610e7157610e706119fe565b5b90600052602060002090600202016001015493508091506001925080600280549050610e9d9190611d3d565b67ffffffffffffffff811115610eb657610eb5611cc6565b5b604051908082528060200260200182016040528015610ee957816020015b6060815260200190600190039081610ed45790505b50945060028181548110610f0057610eff6119fe565b5b90600052602060002090600202016000018054610f1c90611b2b565b80601f0160208091040260200160405190810160405280929190818152602001828054610f4890611b2b565b8015610f955780601f10610f6a57610100808354040283529160200191610f95565b820191906000526020600020905b815481529060010190602001808311610f7857829003601f168201915b505050505085600185610fa89190611d3d565b81518110610fb957610fb86119fe565b5b60200260200101819052505b5b8080600101915050610d0c565b5050505090565b60016020528060005260406000206000915090508060000154908060010160009054906101000a900460ff16908060010160019054906101000a900460ff16908060010160029054906101000a900473ffffffffffffffffffffffffffffffffffffffff16908060020154905085565b6000600160008373ffffffffffffffffffffffffffffffffffffffff1673ffffffffffffffffffffffffffffffffffffffff168152602001908152602001600020600001549050919050565b60606002805480602002602001604051908101604052809291908181526020016000905b8282101561118857838290600052602060002090600202016040518060400160405290816000820180546110ed90611b2b565b80601f016020809104026020016040519081016040528092919081815260200182805461111990611b2b565b80156111665780601f1061113b57610100808354040283529160200191611166565b820191906000526020600020905b81548152906001019060200180831161114957829003601f168201915b50505050508152602001600182015481525050815260200190600101906110ba565b50505050905090565b60008054906101000a900473ffffffffffffffffffffffffffffffffffffffff1681565b61124d82826040516024016111cb92919061154e565b6040516020818303038152906040527fb60e72cc000000000000000000000000000000000000000000000000000000007bffffffffffffffffffffffffffffffffffffffffffffffffffffffff19166020820180517bffffffffffffffffffffffffffffffffffffffffffffffffffffffff8381831617835250505050611251565b5050565b6112688161126061126b61128c565b63ffffffff16565b50565b60006a636f6e736f6c652e6c6f679050600080835160208501845afa505050565b611297819050919050565b61129f611d71565b565b600080fd5b600080fd5b6000819050919050565b6112be816112ab565b81146112c957600080fd5b50565b6000813590506112db816112b5565b92915050565b6000602082840312156112f7576112f66112a1565b5b6000611305848285016112cc565b91505092915050565b600073ffffffffffffffffffffffffffffffffffffffff82169050919050565b60006113398261130e565b9050919050565b6113498161132e565b811461135457600080fd5b50565b60008135905061136681611340565b92915050565b600060208284031215611382576113816112a1565b5b600061139084828501611357565b91505092915050565b60008115159050919050565b6113ae81611399565b82525050565b60006020820190506113c960008301846113a5565b92915050565b600081519050919050565b600082825260208201905092915050565b6000819050602082019050919050565b6114048161132e565b82525050565b600061141683836113fb565b60208301905092915050565b6000602082019050919050565b600061143a826113cf565b61144481856113da565b935061144f836113eb565b8060005b83811015611480578151611467888261140a565b975061147283611422565b925050600181019050611453565b5085935050505092915050565b600060208201905081810360008301526114a7818461142f565b905092915050565b600081519050919050565b600082825260208201905092915050565b60005b838110156114e95780820151818401526020810190506114ce565b60008484015250505050565b6000601f19601f8301169050919050565b6000611511826114af565b61151b81856114ba565b935061152b8185602086016114cb565b611534816114f5565b840191505092915050565b611548816112ab565b82525050565b600060408201905081810360008301526115688185611506565b9050611577602083018461153f565b9392505050565b6115878161132e565b82525050565b60006020820190506115a2600083018461157e565b92915050565b600080fd5b600080fd5b600080fd5b60008083601f8401126115cd576115cc6115a8565b5b8235905067ffffffffffffffff8111156115ea576115e96115ad565b5b602083019150836020820283011115611606576116056115b2565b5b9250929050565b60008060208385031215611624576116236112a1565b5b600083013567ffffffffffffffff811115611642576116416112a6565b5b61164e858286016115b7565b92509250509250929050565b600081519050919050565b600082825260208201905092915050565b6000819050602082019050919050565b600082825260208201905092915050565b60006116a2826114af565b6116ac8185611686565b93506116bc8185602086016114cb565b6116c5816114f5565b840191505092915050565b60006116dc8383611697565b905092915050565b6000602082019050919050565b60006116fc8261165a565b6117068185611665565b93508360208202850161171885611676565b8060005b85811015611754578484038952815161173585826116d0565b9450611740836116e4565b925060208a0199505060018101905061171c565b50829750879550505050505092915050565b6000602082019050818103600083015261178081846116f1565b905092915050565b600060a08201905061179d600083018861153f565b6117aa60208301876113a5565b6117b760408301866113a5565b6117c4606083018561157e565b6117d1608083018461153f565b9695505050505050565b60006020820190506117f0600083018461153f565b92915050565b600081519050919050565b600082825260208201905092915050565b6000819050602082019050919050565b61182b816112ab565b82525050565b6000604083016000830151848203600086015261184e8282611697565b91505060208301516118636020860182611822565b508091505092915050565b600061187a8383611831565b905092915050565b6000602082019050919050565b600061189a826117f6565b6118a48185611801565b9350836020820285016118b685611812565b8060005b858110156118f257848403895281516118d3858261186e565b94506118de83611882565b925060208a019950506001810190506118ba565b50829750879550505050505092915050565b6000602082019050818103600083015261191e818461188f565b905092915050565b7f596f75206861766520766f74656420616c72656164792e000000000000000000600082015250565b600061195c6017836114ba565b915061196782611926565b602082019050919050565b6000602082019050818103600083015261198b8161194f565b9050919050565b7f496e76616c69642043727970746f2049442e0000000000000000000000000000600082015250565b60006119c86012836114ba565b91506119d382611992565b602082019050919050565b600060208201905081810360008301526119f7816119bb565b9050919050565b7f4e487b7100000000000000000000000000000000000000000000000000000000600052603260045260246000fd5b7f4e487b7100000000000000000000000000000000000000000000000000000000600052601160045260246000fd5b6000611a67826112ab565b9150611a72836112ab565b9250828201905080821115611a8a57611a89611a2d565b5b92915050565b7f566f7465207375636365737366756c6c792e0000000000000000000000000000600082015250565b6000611ac66012836114ba565b9150611ad182611a90565b602082019050919050565b60006020820190508181036000830152611af581611ab9565b9050919050565b7f4e487b7100000000000000000000000000000000000000000000000000000000600052602260045260246000fd5b60006002820490506001821680611b4357607f821691505b602082108103611b5657611b55611afc565b5b50919050565b7f596f75206861766520766f7465642c206e6f206e65656420746f2064656c656760008201527f61746520796f757220766f74657320746f206f74686572732e00000000000000602082015250565b6000611bb86039836114ba565b9150611bc382611b5c565b604082019050919050565b60006020820190508181036000830152611be781611bab565b9050919050565b7f43616e27742064656c656761746520746f2073656c662e000000000000000000600082015250565b6000611c246017836114ba565b9150611c2f82611bee565b602082019050919050565b60006020820190508181036000830152611c5381611c17565b9050919050565b7f64656c6567617465206c6f6f702e000000000000000000000000000000000000600082015250565b6000611c90600e836114ba565b9150611c9b82611c5a565b602082019050919050565b60006020820190508181036000830152611cbf81611c83565b9050919050565b7f4e487b7100000000000000000000000000000000000000000000000000000000600052604160045260246000fd5b6000611d00826112ab565b91507fffffffffffffffffffffffffffffffffffffffffffffffffffffffffffffffff8203611d3257611d31611a2d565b5b600182019050919050565b6000611d48826112ab565b9150611d53836112ab565b9250828203905081811115611d6b57611d6a611a2d565b5b92915050565b7f4e487b7100000000000000000000000000000000000000000000000000000000600052605160045260246000fdfea2646970667358221220c3ec7db42d4acf71eeaa89b1274f35928fb86f6db034d31b734d3cfc2923a12464736f6c63430008180033",
  "linkReferences": {},
  "deployedLinkReferences": {}
}